{
  "_format": "hh-sol-artifact-1",
  "contractName": "AegisNexus",
  "sourceName": "contracts/AegisNexus.sol",
  "abi": [
    {
      "inputs": [],
      "stateMutability": "nonpayable",
      "type": "constructor"
    },
    {
      "anonymous": false,
      "inputs": [
        {
          "indexed": true,
          "internalType": "address",
          "name": "_exporter",
          "type": "address"
        },
        {
          "indexed": false,
          "internalType": "string",
          "name": "_ipfsHash",
          "type": "string"
        }
      ],
      "name": "addHash",
      "type": "event"
    },
    {
      "inputs": [
        {
          "internalType": "bytes32",
          "name": "hash",
          "type": "bytes32"
        },
        {
          "internalType": "string",
          "name": "_ipfs",
          "type": "string"
        }
      ],
      "name": "addDocHash",
      "outputs": [],
      "stateMutability": "nonpayable",
      "type": "function"
    },
    {
      "inputs": [
        {
          "internalType": "address",
          "name": "_add",
          "type": "address"
        },
        {
          "internalType": "string",
          "name": "_info",
          "type": "string"
        }
      ],
      "name": "add_Exporter",
      "outputs": [],
      "stateMutability": "nonpayable",
      "type": "function"
    },
    {
      "inputs": [
        {
          "internalType": "address",
          "name": "_add",
          "type": "address"
        },
        {
          "internalType": "string",
          "name": "_newInfo",
          "type": "string"
        }
      ],
      "name": "alter_Exporter",
      "outputs": [],
      "stateMutability": "nonpayable",
      "type": "function"
    },
    {
      "inputs": [
        {
          "internalType": "address",
          "name": "_newOwner",
          "type": "address"
        }
      ],
      "name": "changeOwner",
      "outputs": [],
      "stateMutability": "nonpayable",
      "type": "function"
    },
    {
      "inputs": [],
      "name": "count_Exporters",
      "outputs": [
        {
          "internalType": "uint16",
          "name": "",
          "type": "uint16"
        }
      ],
      "stateMutability": "view",
      "type": "function"
    },
    {
      "inputs": [],
      "name": "count_hashes",
      "outputs": [
        {
          "internalType": "uint16",
          "name": "",
          "type": "uint16"
        }
      ],
      "stateMutability": "view",
      "type": "function"
    },
    {
      "inputs": [
        {
          "internalType": "bytes32",
          "name": "_hash",
          "type": "bytes32"
        }
      ],
      "name": "deleteHash",
      "outputs": [],
      "stateMutability": "nonpayable",
      "type": "function"
    },
    {
      "inputs": [
        {
          "internalType": "address",
          "name": "_add",
          "type": "address"
        }
      ],
      "name": "delete_Exporter",
      "outputs": [],
      "stateMutability": "nonpayable",
      "type": "function"
    },
    {
      "inputs": [
        {
          "internalType": "bytes32",
          "name": "_hash",
          "type": "bytes32"
        }
      ],
      "name": "findDocHash",
      "outputs": [
        {
          "internalType": "uint256",
          "name": "",
          "type": "uint256"
        },
        {
          "internalType": "uint256",
          "name": "",
          "type": "uint256"
        },
        {
          "internalType": "string",
          "name": "",
          "type": "string"
        },
        {
          "internalType": "string",
          "name": "",
          "type": "string"
        }
      ],
      "stateMutability": "view",
      "type": "function"
    },
    {
      "inputs": [
        {
          "internalType": "address",
          "name": "_add",
          "type": "address"
        }
      ],
      "name": "getExporterInfo",
      "outputs": [
        {
          "internalType": "string",
          "name": "",
          "type": "string"
        }
      ],
      "stateMutability": "view",
      "type": "function"
    },
    {
      "inputs": [],
      "name": "owner",
      "outputs": [
        {
          "internalType": "address",
          "name": "",
          "type": "address"
        }
      ],
      "stateMutability": "view",
      "type": "function"
    }
  ],
  "bytecode": "0x60806040526000805463ffffffff1916905534801561001d57600080fd5b50600080546401000000003302600160201b600160c01b0319909116179055610fa98061004b6000396000f3fe608060405234801561001057600080fd5b50600436106100a95760003560e01c806363f0bfce1161007157806363f0bfce146101495780636ed73e481461015c5780638da5cb5b1461016a578063a6f9dae11461019d578063bf3ccf48146101b0578063cf3457bf146101c357600080fd5b806305c8dc19146100ae57806324ac89cb146100d757806343f6f548146100ec5780634cf00d3f14610113578063505cd5d014610136575b600080fd5b6100c16100bc366004610a27565b6101d6565b6040516100ce9190610a8f565b60405180910390f35b6100ea6100e5366004610a27565b610285565b005b6000546101009062010000900461ffff1681565b60405161ffff90911681526020016100ce565b610126610121366004610aa2565b610356565b6040516100ce9493929190610abb565b6100ea610144366004610b40565b6104a9565b6100ea610157366004610aa2565b61052e565b6000546101009061ffff1681565b6000546101859064010000000090046001600160a01b031681565b6040516001600160a01b0390911681526020016100ce565b6100ea6101ab366004610a27565b6106a1565b6100ea6101be366004610b93565b610719565b6100ea6101d1366004610b40565b610957565b6001600160a01b038116600090815260026020526040902060010180546060919061020090610bc6565b80601f016020809104026020016040519081016040528092919081815260200182805461022c90610bc6565b80156102795780601f1061024e57610100808354040283529160200191610279565b820191906000526020600020905b81548152906001019060200180831161025c57829003601f168201915b50505050509050919050565b60005464010000000090046001600160a01b031633146102c05760405162461bcd60e51b81526004016102b790610c00565b60405180910390fd5b6001600160a01b03811660009081526002602052604081205490036102e7576102e7610c37565b6001600160a01b0381166000818152600260208181526040808420848155815180840190925284825294909352526001909101906103259082610cb2565b506000805481906103399061ffff16610d88565b91906101000a81548161ffff021916908361ffff16021790555050565b600081815260016020819052604082208054918101546002820180548594606094859491939192600390910190829061038e90610bc6565b80601f01602080910402602001604051908101604052809291908181526020018280546103ba90610bc6565b80156104075780601f106103dc57610100808354040283529160200191610407565b820191906000526020600020905b8154815290600101906020018083116103ea57829003601f168201915b5050505050915080805461041a90610bc6565b80601f016020809104026020016040519081016040528092919081815260200182805461044690610bc6565b80156104935780601f1061046857610100808354040283529160200191610493565b820191906000526020600020905b81548152906001019060200180831161047657829003601f168201915b5050505050905093509350935093509193509193565b60005464010000000090046001600160a01b031633146104db5760405162461bcd60e51b81526004016102b790610c00565b6001600160a01b038316600090815260026020526040812054900361050257610502610c37565b6001600160a01b0383166000908152600260205260409020600101610528828483610da6565b50505050565b80600160008281526020019081526020016000206002016040516020016105559190610e67565b60408051601f1981840301815282825280516020918201203360009081526002835292909220919261058b926001019101610e67565b60405160208183030381529060405280519060200120146106065760405162461bcd60e51b815260206004820152602f60248201527f43616c6c6572206973206e6f742020617574686f726973656420746f2065646960448201526e1d081d1a1a5cc8191bd8dd5b595b9d608a1b60648201526084016102b7565b3360009081526002602052604081205490036106345760405162461bcd60e51b81526004016102b790610edd565b600082815260016020819052604082200154900361065457610654610c37565b600082815260016020819052604082208281550181905580546002906106839062010000900461ffff16610d88565b91906101000a81548161ffff021916908361ffff1602179055505050565b60005464010000000090046001600160a01b031633146106d35760405162461bcd60e51b81526004016102b790610c00565b806001600160a01b0381166106ea576106ea610c37565b50600080546001600160a01b0390921664010000000002640100000000600160c01b0319909216919091179055565b3360009081526002602052604081205490036107475760405162461bcd60e51b81526004016102b790610edd565b600083815260016020526040902054158015610773575060008381526001602081905260409091200154155b61077f5761077f610c37565b6000604051806080016040528043815260200142815260200160026000336001600160a01b03166001600160a01b0316815260200190815260200160002060010180546107cb90610bc6565b80601f01602080910402602001604051908101604052809291908181526020018280546107f790610bc6565b80156108445780601f1061081957610100808354040283529160200191610844565b820191906000526020600020905b81548152906001019060200180831161082757829003601f168201915b5050505050815260200184848080601f01602080910402602001604051908101604052809392919081815260200183838082843760009201829052509390945250508681526001602081815260409283902085518155908501519181019190915590830151929350839290915060028201906108c09082610cb2565b50606082015160038201906108d59082610cb2565b5050600080549091506002906108f49062010000900461ffff16610f23565b91906101000a81548161ffff021916908361ffff160217905550336001600160a01b03167f331f916dac8170a5e3a8a5c82c9de7950bb6cadfb098253c080cb72851b264708484604051610949929190610f44565b60405180910390a250505050565b60005464010000000090046001600160a01b031633146109895760405162461bcd60e51b81526004016102b790610c00565b6001600160a01b038316600090815260026020526040902054156109af576109af610c37565b6001600160a01b03831660009081526002602052604090204381556001016109d8828483610da6565b506000805481906109ec9061ffff16610f23565b91906101000a81548161ffff021916908361ffff160217905550505050565b80356001600160a01b0381168114610a2257600080fd5b919050565b600060208284031215610a3957600080fd5b610a4282610a0b565b9392505050565b6000815180845260005b81811015610a6f57602081850181015186830182015201610a53565b506000602082860101526020601f19601f83011685010191505092915050565b602081526000610a426020830184610a49565b600060208284031215610ab457600080fd5b5035919050565b848152836020820152608060408201526000610ada6080830185610a49565b8281036060840152610aec8185610a49565b979650505050505050565b60008083601f840112610b0957600080fd5b50813567ffffffffffffffff811115610b2157600080fd5b602083019150836020828501011115610b3957600080fd5b9250929050565b600080600060408486031215610b5557600080fd5b610b5e84610a0b565b9250602084013567ffffffffffffffff811115610b7a57600080fd5b610b8686828701610af7565b9497909650939450505050565b600080600060408486031215610ba857600080fd5b83359250602084013567ffffffffffffffff811115610b7a57600080fd5b600181811c90821680610bda57607f821691505b602082108103610bfa57634e487b7160e01b600052602260045260246000fd5b50919050565b60208082526017908201527f43616c6c6572206973206e6f7420746865206f776e6572000000000000000000604082015260600190565b634e487b7160e01b600052600160045260246000fd5b634e487b7160e01b600052604160045260246000fd5b601f821115610cad57600081815260208120601f850160051c81016020861015610c8a5750805b601f850160051c820191505b81811015610ca957828155600101610c96565b5050505b505050565b815167ffffffffffffffff811115610ccc57610ccc610c4d565b610ce081610cda8454610bc6565b84610c63565b602080601f831160018114610d155760008415610cfd5750858301515b600019600386901b1c1916600185901b178555610ca9565b600085815260208120601f198616915b82811015610d4457888601518255948401946001909101908401610d25565b5085821015610d625787850151600019600388901b60f8161c191681555b5050505050600190811b01905550565b634e487b7160e01b600052601160045260246000fd5b600061ffff821680610d9c57610d9c610d72565b6000190192915050565b67ffffffffffffffff831115610dbe57610dbe610c4d565b610dd283610dcc8354610bc6565b83610c63565b6000601f841160018114610e065760008515610dee5750838201355b600019600387901b1c1916600186901b178355610e60565b600083815260209020601f19861690835b82811015610e375786850135825560209485019460019092019101610e17565b5086821015610e545760001960f88860031b161c19848701351681555b505060018560011b0183555b5050505050565b6000808354610e7581610bc6565b60018281168015610e8d5760018114610ea257610ed1565b60ff1984168752821515830287019450610ed1565b8760005260208060002060005b85811015610ec85781548a820152908401908201610eaf565b50505082870194505b50929695505050505050565b60208082526026908201527f43616c6c6572206e6f7420617574686f726973656420746f2061646420646f63604082015265756d656e747360d01b606082015260800190565b600061ffff808316818103610f3a57610f3a610d72565b6001019392505050565b60208152816020820152818360408301376000818301604090810191909152601f909201601f1916010191905056fea2646970667358221220ffc126d61153aa0f8b8d425bcfd25ae7f93101505e14a3cc7bc11bf89646113a64736f6c63430008110033",
  "linkReferences": {},
  "deployedLinkReferences": {}
}